:020000040000FA
:100000000C9483050C94AB050C94AB050C94AB05D8
:100010000C94AB050C94AB050C94AB050C942C160E
:100020000C94AB050C94AB050C94AB050C94AB0590
:100030000C94AB050C94AB050C94AB050C94AB0580
:100040000C94E0160C94AB050C94AE160C94881628
:100050000C94AB050C94AB050C94AB050C94AB0560
:100060000C942A170C94AB0507634236B79BD8A7AC
:100070001A39685618AEBAAB558C1D3CB7CC5763CD
:10008000BD6DEDFD753EF6177231BF000000803F7B
:1000900008000000BE922449123EABAAAA2ABECD97
:1000A000CCCC4C3E00000080BEABAAAAAA3E000009
:1000B0000000BF000000803F000000000008417801
:1000C000D3BB4387D1133D190E3CC3BD4282AD2B38
:1000D0003E68EC8276BED98FE1A93E4C80EFFFBE30
:1000E00001C4FF7F3F000000000000000000003E50
:1000F0005B4F5B3E3E6B4F6B3E1C3E7C3E1C183C98
:100100007E3C181C577D571C1C5E7F5E1C00183CF3
:100110001800FFE7C3E7FF0018241800FFE7DBE73C
:10012000FF30483A060E2629792926407F05050723
:10013000407F05253F5A3CE73C5A7F3E1C1C08087F
:100140001C1C3E7F14227F22145F5F005F5F060944
:100150007F017F006689956A606060606094A2FF9D
:10016000A29408047E040810207E201008082A1C8F
:1001700008081C2A08081E101010100C1E0C1E0C5B
:1001800030383E3830060E3E0E06000000000000FB
:10019000005F00000007000700147F147F14242A6A
:1001A0007F2A12231308646236495620500008073C
:1001B0000300001C2241000041221C002A1C7F1C5D
:1001C0002A08083E0808008070300008080808085F
:1001D000000060600020100804023E5149453E00C6
:1001E000427F400072494949462141494D33181424
:1001F000127F1027454545393C4A49493141211173
:1002000009073649494936464949291E0000140064
:100210000000403400000008142241141414141487
:10022000004122140802015909063E415D594E7CE5
:100230001211127C7F494949363E414141227F419A
:1002400041413E7F494949417F090909013E4141F8
:1002500051737F0808087F00417F41002040413FE3
:10026000017F081422417F404040407F021C027FF2
:100270007F0408107F3E4141413E7F090909063E47
:100280004151215E7F091929462649494932030116
:100290007F01033F4040403F1F2040201F3F403828
:1002A000403F631408146303047804036159494D03
:1002B00043007F4141410204081020004141417F39
:1002C00004020102044040404040000307080020AF
:1002D000545478407F2844443838444444283844AF
:1002E00044287F385454541800087E090218A4A4E6
:1002F0009C787F0804047800447D40002040403D05
:10030000007F1028440000417F40007C047804787E
:100310007C080404783844444438FC182424181811
:10032000242418FC7C08040408485454542404046D
:100330003F44243C4040207C1C2040201C3C40305A
:10034000403C44281028444C9090907C4464544C89
:1003500044000836410000007700000041360800E4
:1003600002010204023C2623263C1EA1A161123A8E
:100370004040207A385454555921555579412254DA
:10038000547842215554784020545579400C1E52DF
:100390007212395555555939545454593955545484
:1003A000580000457C410002457D420001457C40EB
:1003B0007D1211127DF0282528F07C54554500202F
:1003C00054547C547C0A097F4932494949323A44A1
:1003D00044443A324A4848303A4141217A3A42400C
:1003E0002078009DA0A07D3D4242423D3D404040DE
:1003F0003D3C24FF2424487E4943662B2FFC2F2BB1
:10040000FF0929F620C0887E090320545479410051
:1004100000447D413048484A32384040227A007AD0
:100420000A0A727D0D19317D2629292F28262929AE
:10043000292630484D4020380808080808080808D0
:10044000382F10C8ACBA2F102834FA00007B0000F7
:1004500008142A142222142A14085500550055AAFB
:1004600055AA55AAFF55FF55FF000000FF001010C8
:1004700010FF00141414FF001010FF00FF1010F004
:1004800010F0141414FC001414F700FF0000FF0017
:10049000FF1414F404FC141417101F10101F101F65
:1004A0001414141F00101010F0000000001F101092
:1004B00010101F10101010F010000000FF1010108E
:1004C000101010101010FF10000000FF140000FFAB
:1004D00000FF00001F10170000FC04F41414171094
:1004E000171414F404F40000FF00F7141414141487
:1004F0001414F700F7141414171410101F101F14FD
:100500001414F4141010F010F000001F101F00005D
:10051000001F14000000FC140000F010F01010FF89
:1005200010FF141414FF141010101F00000000F02E
:1005300010FFFFFFFFFFF0F0F0F0F0FFFFFF000003
:10054000000000FFFF0F0F0F0F0F3844443844FC2A
:100550004A4A4A347E02020606027E027E02635541
:100560004941633844443C04407E201E2006027EFC
:10057000020299A5E7A5991C2A492A1C4C7201720E
:100580004C304A4D4D303048784830BC625A463D78
:100590003E494949007E0101017E2A2A2A2A2A442D
:1005A000445F444440514A444040444A5140000062
:1005B000FF0103E080FF000008086B6B083612366D
:1005C0002436060F090F060000181800000010104E
:1005D000003040FF0101001F01011E00191D17120C
:1005E000003C3C3C3C0000000000000103070F1FE2
:1005F0003F7F0080C0E0F0F8FCFE00000008000231
:100600000100000304070000000000000000DB40C0
:10061000A4A62EAF2000A1C8D300408DAED580A8DF
:10062000000060000000000000000000000000006A
:1006300000E00000000000000000000000000001D9
:10064000E00000000000000000000000000001F0D9
:100650000000000000000000000000000003F000A7
:1006600000000000000000000000000007F0000093
:10067000000000000000000000000007F80000007B
:10068000000000000000000000000FF80000000360
:10069000C0007E000001E0007F0FF800000003C0F2
:1006A00000FE000001E000FFEFF800000003C000C2
:1006B000FE000001E000FFFFF800000003C000F0B2
:1006C0000000000F007FFE7FC0000003C000F000AC
:1006D00000000F003FFE7FF83FF1FBCFFCFEF3BCB4
:1006E0003DEFE01FFE7FFF7FFBFFDFFEFEFFBC3D17
:1006F000EFE01FC6FFFF7FFBFFDFFEFEFFBC3DEF0D
:10070000E00FE3C7FE787BC3DE1EF0FFBC3DEF00C9
:1007100007FF87FC787BC3DE1EF0F83C3DEF00014D
:10072000FFFFF0007BC3C01EF0F03C3DEF0001F383
:100730007FE03FFBC3CFFEF0F03C3DEF0003E33F23
:10074000807FFBC3DFFEF0F03C3DEF0007E73C009D
:10075000787BC3DE1EF0F03C3DEF0007FFBE007863
:100760007BC3DE1EF0F03C3DEF0007FFFE00787B10
:10077000C3DE1EF0F03C3DEF000FFFFE007FFBFFED
:10078000DFFEF0F03FFDEFE00FFFFF007FFBFFDF3C
:10079000FEF0F03FFDEFE00FF9FF003E79F9CF9E4C
:1007A000F0F01F3DE7E01FF1FF0000000000000037
:1007B00000000000001F80FF007FFFFFFFFFFFFF22
:1007C000FFFFFFE01C007F007FFFFFFFFEB46D888E
:1007D0008D18E000001F007FFFFFFFFE95AD7DB587
:1007E00077E000000F007FFFFFFFFEA5AD9D8D1994
:1007F000E0000006007FFFFFFFFEB5ADEDB57EE037
:100800000000000000018000000000000000000067
:10081000038000000000000000000007C00000008E
:1008200000000000000007C0000000000000000001
:10083000000FC00000000000000000001FE00000EA
:10084000000000000000001FE000000000000000A9
:1008500000003FE00000000000000000003FF0004A
:1008600000000000000000007FF000000000000019
:10087000001FF87FF0000000000000003FFE7FF046
:10088000000000000000003FFF7FF00000000000BB
:1008900000001FFFFBE0000000000000000FFFF958
:1008A000FFC00000000000000FFFF9FFF80000008B
:1008B00000000007FFF1FFFF00000000000003FC44
:1008C00073FFFF80000000000001FE3FFFFF80007B
:1008D0000000000000FF1E0FFF00000000000000ED
:1008E0007FFE1FFC000000000000003FFFFFF8003B
:1008F0000000000000000FDFFFE00000000000002B
:10090000001F19FFC0000000000000003F3CFF0076
:10091000000000000000007E7CF8000000000000E5
:1009200000007FFE7C0000000000000000FFFFFCD4
:100930000000000000000000FFFFFE0000000000BB
:10094000000000FFFFFE0000000000000001FFEFBC
:10095000FE0000000000000001FFCFFE00000000CC
:1009600000000003FF07FE0000000000000003FC81
:1009700007FE0000000000000003F003FE0000007E
:1009800000000000018000FE0000000000000000E8
:1009900000007E000000000000000000003E00009B
:1009A00000000000000000000C0000000000000734
:1009B0008000FC000003C0000000078001FC000074
:1009C00003C0000000078001FC000003C00000001D
:1009D000078001E00000001E000000078001E00029
:1009E00000001E007FE3F79FF9FDE7787BDFC0FF83
:1009F000F7FFBFFDFDFF787BDFC0FFF7FFBFFDFD09
:100A0000FF787BDFC0F0F787BC3DE1FF787BDE003D
:100A1000F0F787BC3DE1F0787BDE0000F787803D92
:100A2000E1E0787BDE007FF7879FFDE1E0787BDE09
:100A300000FFF787BFFDE1E0787BDE00F0F787BCC1
:100A40003DE1E0787BDE00F0F787BC3DE1E0787BBC
:100A5000DE00F0F787BC3DE1E0787BDE00FFF7FFCA
:100A6000BFFDE1E07FFBDFC0FFF7FFBFFDE1E07FFF
:100A7000FBDFC07CF3F39F3DE1E03E7BCFC0000095
:100A8000000000000000000000FFFFFFFFFFFFFF6D
:100A9000FFFFFFC0FFFFFFFFFD68DB111A31C0FF42
:100AA000FFFFFFFD2B5AFB6AEFC0FFFFFFFFFD4B6F
:100AB0005B3B1A33C0FFFFFFFFFD6B5BDB6AFDC0D2
:100AC0000200000000250028002B00000000002488
:100AD0000027002A0004040404040404040202029F
:100AE000020202030303030303010204081020406F
:100AF000800102040810200102040810202200FFD7
:100B000021004918221E11241FBECFEFD8E0DEBFFE
:100B1000CDBF11E0A0E0B1E0E0EBF6E402C005904B
:100B20000D92A03DB107D9F723E0A0EDB1E001C0DF
:100B30001D92A239B207E1F715E0C2E8D5E004C082
:100B40002197FE010E941422C138D107C9F70E94E3
:100B5000CD180C944B230C94000090E0FC01E7515D
:100B6000F54F24918B52954FFC018491882399F085
:100B700090E0880F991FFC01E553F54FA591B491C2
:100B8000FC01EF53F54F859194918FB7F894EC9158
:100B9000E22BEC938FBF0895089508950895AF92C6
:100BA000BF92CF92DF92EF92FF920F931F93CF935A
:100BB000DF936C017B018B01040F151FEB015E01BC
:100BC000AE18BF08C017D10759F06991D601ED9151
:100BD000FC910190F081E02DC6010995892B79F7F0
:100BE000C501DF91CF911F910F91FF90EF90DF90A2
:100BF000CF90BF90AF900895FC01538D448D252F69
:100C000030E0842F90E0821B930B541710F0CF96A6
:100C1000089501970895FC01918D828D981761F0D8
:100C2000A28DAE0FBF2FB11D5D968C91928D9F5FEF
:100C30009F73928F90E008958FEF9FEF0895FC01CE
:100C4000918D828D981731F0828DE80FF11D858D81
:100C500090E008958FEF9FEF0895FC01918D228D14
:100C6000892F90E0805C9F4F821B91098F73992799
:100C7000089585EA92E00E942D0621E0892B09F46F
:100C800020E0822F089580E090E0892B29F00E94D7
:100C9000390681110C9400000895FC01A48DA80F61
:100CA000B92FB11DA35ABF4F2C91848D90E00196AE
:100CB0008F739927848FA689B7892C93A089B189CE
:100CC0008C91837080648C93938D848D981306C06F
:100CD0000288F389E02D80818F7D80830895EF92D3
:100CE000FF920F931F93CF93DF93EC0181E0888FE6
:100CF0009B8D8C8D98131AC0E889F989808185FFB6
:100D000015C09FB7F894EE89FF896083E889F98957
:100D100080818370806480839FBF81E090E0DF9159
:100D2000CF911F910F91FF90EF900895F62E0B8DAC
:100D300010E00F5F1F4F0F731127E02E8C8D8E1167
:100D40000CC00FB607FCFACFE889F989808185FFCE
:100D5000F5CFCE010E944D06F1CFEB8DEC0FFD2FAC
:100D6000F11DE35AFF4FF0829FB7F8940B8FEA8989
:100D7000FB8980818062CFCFCF93DF93EC01888D98
:100D80008823B9F0AA89BB89E889F9898C9185FD06
:100D900003C0808186FD0DC00FB607FCF7CF8C9194
:100DA00085FFF2CF808185FFEDCFCE010E944D06F9
:100DB000E9CFDF91CF91089590E0FC01E650FA4F22
:100DC0002491FC01E751F54F3491FC01EB52F54FB2
:100DD000E491EE23C9F0222339F0233001F1A8F485
:100DE000213019F1223029F1F0E0EE0FFF1FEF530F
:100DF000F54FA591B4918FB7F894EC91611126C08D
:100E000030953E233C938FBF08952730A9F02830BA
:100E1000C9F0243049F7809180008F7D03C0809114
:100E200080008F7780938000DFCF84B58F7784BD7B
:100E3000DBCF84B58F7DFBCF8091B0008F7780931F
:100E4000B000D2CF8091B0008F7DF9CF3E2BDACFAA
:100E50009091000189130BC0E0ECFAE0E4919FEF60
:100E600090930001E13049F028F0E23061F060E059
:100E70000C94DC0610926E00FACF90916F009D7F6B
:100E800090936F00F4CF909170009D7F90937000CD
:100E900091E09093B0009091B100987F946090930E
:100EA000B1001092B300E3CF3FB7F8948091850270
:100EB00090918602A0918702B091880226B5A89BE6
:100EC00005C02F3F19F00196A11DB11D3FBFBA2FDC
:100ED000A92F982F8827BC01CD01620F711D811D9C
:100EE000911D42E0660F771F881F991F4A95D1F721
:100EF00008958F929F92AF92BF92CF92DF92EF921E
:100F0000FF924B015C010E9454076B017C010E941F
:100F100054076C197D098E099F09683E734081054D
:100F20009105A8F321E0821A9108A108B10888EE82
:100F3000C80E83E0D81EE11CF11C81149104A104A9
:100F4000B10429F7FF90EF90DF90CF90BF90AF9062
:100F50009F908F900895EF92FF920F931F93CF93DE
:100F6000DF93EC01EC80FD806E157F050CF070C006
:100F700057FF04C0240F351F50E040E08E819F8151
:100F8000FA01E20FF31F8E179F071CF49C01241B2C
:100F9000350B121613060CF05BC0922F842F86952A
:100FA000869586958E9DD0018F9DB00D11246A0F78
:100FB0007B1FAF8DB8A1A60FB71F477049F188E01E
:100FC000841B482F682F70E0FB01EE50FA4FE4912C
:100FD000281708F063C0621B71092FEF30E002C0D0
:100FE000359527956A95E2F7E2230130110539F02E
:100FF000B0F10230110561F58C91E82702C08C91A7
:10100000E82BEC93941720F12C813D81A20FB31FA4
:10101000E92FE41BE83078F00230110521F58E2F1E
:101020009C9190959C932C813D81A20FB31F885079
:101030008830B0F7E770EE2359F0F0E0E651FA4F50
:10104000E49101301105F9F010F10230110519F1A8
:10105000DF91CF911F910F91FF90EF900895E09550
:101060008C91E823CECF81E00115110509F480E0D1
:1010700081959E2F8C932C813D81A20FB31F985098
:101080009830C0F7D7CF8C91E82BEC93E1CFE09567
:101090008C91E823FACF8C91E827F7CF0130110526
:1010A00009F4ADCFE0F20230110509F4A5CFAE0D81
:1010B000BF1DAECF0F931F93CF93DF9377FF04C075
:1010C000260F371F70E060E0DC011496CD91DC91B3
:1010D000FB01E20FF31FCE17DF071CF49E01261B56
:1010E000370B121613064CF5FA0157FD3796A3E09D
:1010F000F595E795AA95E1F7EC9FD001ED9FB00D2E
:10110000FC9FB00D11246A0F7B1FDC015F96ED91EF
:10111000FC91E60FF71F4770552781E090E001C072
:10112000880F4A95EAF7482F0130110559F0A8F0C9
:101130002E0F3F1F02301105E1F0DF91CF911F917B
:101140000F9108952E0F3F1FE217F307B1F381911E
:10115000DF011197842B8C93F7CF80952E0F3F1FC3
:10116000E217F30751F39191DF01119798239C93B4
:10117000F7CFE217F30709F38191DF011197842775
:101180008C93F7CF0F931F93FA01DC0156964C9185
:1011900056974230E9F04330A1F1413061F51496A1
:1011A0004D915C91DA01AE1BBF0BFD01E21BF30B0D
:1011B00077FD0BC0DC0116964D915C9164177507A5
:1011C00024F4AB01BF010E945A081F910F910895AA
:1011D00014964D915C91DA01A61BB70BBD016150CD
:1011E0007109DC0116964D915C91DA01AE1BBF0BC3
:1011F000FD01E21BF30B77FDE8CFAF010E94AB07C7
:10120000E4CF16964D915C91DA01A61BB70BBD0198
:1012100061507109CDCF0F931F93FA01DC015696EF
:101220004C9156974230A9F0433091F1413019F575
:1012300014964D915C91DA01AE1BBF0BFD01319705
:10124000F7FD04C0AB01BF010E94AB071F910F91D6
:10125000089514964D915C91DA01A61BB70BBD0160
:10126000DC0116964D915C91DA01AE1BBF0BFD01BE
:101270003197621B730BF7FDE9CFDC0116964D9198
:101280005C91E417F50714F7AF010E945A08DECF0E
:1012900016964D915C91DA01A61BB70BBD01621B3E
:1012A000730BCECFFC0177FD64C0808591856817F4
:1012B00079070CF05EC057FD5CC0828593854817A6
:1012C00059070CF056C086898230B1F0833029F17D
:1012D000813041F484819581841B950BAB01BC0165
:1012E000615071092130310509F108F443C0223001
:1012F000310509F463C0089584819581DC01A61B42
:10130000B70BBD016150710986819781DC01A41B77
:10131000B50BAD0141505109E5CF86819781861B00
:10132000970BBA01AC0141505109DCCFCA0157FDFE
:101330000796A3E095958795AA95E1F7A481B581D5
:101340008A9F90018B9F300D9A9F300D1124620F60
:10135000731F078CF0A1E02DE60FF71F477055278C
:1013600021E030E001C0220F4A95EAF78081822B0C
:1013700080830895CA0157FD079633E095958795B8
:101380003A95E1F7A481B5818A9F90018B9F300D3A
:101390009A9F300D1124620F731F078CF0A1E02D6E
:1013A000E60FF71F4770552781E090E001C0880FD6
:1013B0004A95EAF7809590818923DACFCA0157FDD3
:1013C000079623E0959587952A95E1F7A481B58145
:1013D0008A9F90018B9F300D9A9F300D1124620FD0
:1013E000731F078CF0A1E02DE60FF71F47705527FC
:1013F00021E030E001C0220F4A95EAF78081822780
:10140000B7CF08958EBD00000DB407FEFDCF8EB599
:1014100008958CBD9DBD08950895FC016370668B91
:101420008481958126813781613039F0633029F0DC
:101430009187808733872287089531872087938714
:10144000828708952F923F924F925F926F927F9280
:101450008F929F92AF92BF92CF92DF92EF92FF92C4
:101460000F931F93CF93DF93CDB7DEB76A970FB675
:10147000F894DEBF0FBECDBF9A8F898F7A836983C0
:101480004A01D22E18870F833701BC2CDC015996F4
:101490002D913C915A972115310509F015C11896E7
:1014A0008D919C911997681779070CF0D7C11A96FE
:1014B0008D919C91481759070CF0D0C14C2C512CA0
:1014C000B6E0CB9E600D711D11247C876B871616CC
:1014D00017060CF0C3C1EA2DF0E0FA87E98793E024
:1014E000EE0FFF1F9A95E1F7F88BEF87CF01840F7E
:1014F000951F181619060CF0B1C1A98DBA8D589612
:101500008C91811104C0BFEABD1508F4D394A98D54
:10151000BA8DED91FC9111970284F385E02DCD01F8
:101520000995B5E0DB9EC0011124E981FA81FC83B5
:10153000EB83312C212C9C0126513F4F388F2F8B70
:101540004A2D50E05E8B4D8BEF89F88DE20DF31D37
:1015500044919E828D82D12CC12C69817A81620D49
:10156000731D7A8B698B842F90E09C8B8B8BE98D1C
:10157000FA8DA081B18140FF82C0F1E0BF126FC03F
:10158000AF126DC01C96ED91FC912F813885A4019E
:101590004C0D5D1D69897A89898D9A8D0995EB8934
:1015A000FC89F595E7954E2F5FEFC51AD50A6D8139
:1015B0007E818D899E89680F791F7E836D8398E077
:1015C000C916D10481F6AFEF2A1A3A0AEB81FC81E1
:1015D000E40DF51DFC83EB83F5E02F16310409F0D3
:1015E000B3CF2F81388526153705B9F0A98DBA8D6F
:1015F000ED91FC91B1E0BB1257C0AB1255C06981AF
:101600007A816B5F7F4F0088F189E02D830128E0AC
:1016100030E0A401898D9A8D0995A98DBA8DED913F
:10162000FC9111970688F789E02DCD016A960FB6D7
:10163000F894DEBF0FBECDBFDF91CF911F910F9108
:10164000FF90EF90DF90CF90BF90AF909F908F90E2
:101650007F906F905F904F903F902F9009941E96CF
:10166000ED91FC91EF80F88409851A8592014D81F6
:101670005E816B817C81898D9A8D099590CF2F81B8
:1016800038852615370509F48ACF31E0B31207C033
:10169000A31205C01C96ED91FC91930178CF1E9684
:1016A000ED91FC917301E0CF6B857C856419750920
:1016B0000684F785E02D73010F8518899201A40136
:1016C000898D9A8D0995A9CFF90134969491329715
:1016D00045915491D91AB7E0DB9E400D511D11245C
:1016E000F901259134913C8B2B8BFA012590349094
:1016F000FA013296749031963491398B3296649017
:101700003196449041E04C1518F04A1508F07FC01E
:10171000662D062C000C770B7C836B83842D042CA8
:10172000000C990B9E838D83A98DBA8DED91FC9150
:1017300011970284F385E02DCD010995512CD12C10
:10174000C12CEA2DF0E0FA87E9872B2D30E03C87A9
:101750002B87A401440D511D47FC5A95588F4F8B80
:1017600069817A81660D711D67FC7A957E876D8728
:101770007989C71608F051CF2C2D30E04D815E815C
:10178000420F531FA985BA854A9FC0014B9F900DF8
:101790005A9F900D1124FC01E80DF91DF88BEF877D
:1017A000852D612C4F89588D420F531F5E8B4D8BB9
:1017B000671408F050C044244394480E877041F4E5
:1017C000C1010196EB89FC89E20DF31DD4901C0147
:1017D000D7FE19C0A98DBA8DED91FC91662D70E0F0
:1017E000B1E0BB1219C0AB1217C02D853E85620F48
:1017F000731F0484F585E02D2F8138854D895E891E
:10180000898D9A8D0995DD0C6394842DD1CF1E822C
:101810001D821C821B8288CF4B815C81640F751FE7
:10182000AB85BC856A9FC0016B9F900D7A9F900D20
:10183000112469817A81680F791F0684F785E02D6C
:10184000EF80F88409851A859D014F855889898D17
:101850009A8D0995D8CF570CC3948ACF6A960FB644
:10186000F894DEBF0FBECDBFDF91CF911F910F91D6
:10187000FF90EF90DF90CF90BF90AF909F908F90B0
:101880007F906F905F904F903F902F9008958F9230
:101890009F92AF92CF92EF92FF920F931F93CF93AD
:1018A000DF93EC01262F898D9A8D009709F051C0A6
:1018B0006A30D1F41D861C868D8948E0849F900192
:1018C00011248E859F85820F931F9F878E8781E0CD
:1018D00090E0DF91CF911F910F91FF90EF90CF900B
:1018E000AF909F908F9008956D3089F3CC88AD882C
:1018F0008F898823C1F08C859D8536E0C39E800D3D
:10190000911D1124488559854817590764F44E855F
:101910005F851D861C8638E0A39EC0011124840FBC
:10192000951F9F878E87EA88FB88088919894E85CD
:101930005F856C857D85CE010E94220A2C898C856D
:101940009D8546E0249F800D911D11249D878C87E5
:10195000BECF6A3069F41D861C86FC013896E4917E
:101960002D898E859F85E29F800D911D1124ADCF1D
:101970006D3009F4ACCFFC0134963491631708F450
:10198000A6CF3296E491E61708F4A1CFFC01329677
:1019900085909490462F431B342F47E0349F800C52
:1019A000911C1124F401329634913196E491332341
:1019B000A9F1EE2399F1CC88F4013596E491AD8834
:1019C0004F89442301F10E2E000CFF0BE30FF11D94
:1019D000CE9EA001CF9E500D11246C857D85460FB3
:1019E000571F68857985641775076CF44E855F8588
:1019F0001D861C86FC013896E491AE9E400D511D5B
:101A000011245F874E87EA88FB88088919894E85EB
:101A10005F856C857D85CE010E94220AF401349693
:101A2000E4912C898C859D85E29F800D911D112468
:101A30008DCF6F927F928F929F92AF92BF92CF92F3
:101A4000DF92EF92FF920F931F93CF93DF93EC01FE
:101A50006B015A0139014801E881F9810284F3855B
:101A6000E02D0995E881F9810288F389E02D87014D
:101A70009301A501B601CE010995A501480D591D97
:101A800041505109E881F9810288F389E02D9301E1
:101A9000B601CE010995E881F9810088F189E02D30
:101AA0009401A501B601CE010995C60CD71CB6015B
:101AB00061507109E881F9810088F189E02D940174
:101AC000A501CE010995E881F9810688F789E02D05
:101AD000CE01DF91CF911F910F91FF90EF90DF909A
:101AE000CF90BF90AF909F908F907F906F90099410
:101AF0006F927F928F929F92AF92BF92CF92DF921E
:101B0000EF92FF920F931F93CF93DF935C01EB0152
:101B10006A01490138018701DC01ED91FC916217EE
:101B2000730719F5641675062CF0962D872D3A016A
:101B3000C92ED82E9601261937092F5F3F4F048CE6
:101B4000F58DE02DA301BE01C5010995DF91CF916F
:101B50001F910F91FF90EF90DF90CF90BF90AF90CB
:101B60009F908F907F906F9008954615570591F440
:101B70002617370724F0892D4B01C22FD82F9E013D
:101B8000281939092F5F3F4F068CF78DE02DA601EC
:101B9000B401DACF0284F385E02D0995D501ED91EA
:101BA000FC910488F589E02D83019401A601BE0112
:101BB000C5010995D501ED91FC910688F789E02DC5
:101BC000C501DF91CF911F910F91FF90EF90DF90B2
:101BD000CF90BF90AF909F908F907F906F9009941F
:101BE000EF92FF920F931F93DC011A960D911C91B7
:101BF0001B9718962D913C911997ED91FC9100A09F
:101C0000F1A1E02D7B0150E040E070E060E009953B
:101C10001F910F91FF90EF9008954F925F926F92F6
:101C20007F928F929F92AF92BF92CF92DF92EF926C
:101C3000FF920F931F93CF93DF936C012B015A01F7
:101C400039014801DC01ED91FC910284F385E02D1E
:101C50000995E201640C751CD601ED91FC91C61545
:101C6000D7055CF40088F189E02D87019401A50176
:101C7000BE01C60109952196EFCF0688F789E02DB0
:101C8000C601DF91CF911F910F91FF90EF90DF90F0
:101C9000CF90BF90AF909F908F907F906F905F900C
:101CA0004F9009948F929F92AF92BF92CF92DF9202
:101CB000EF92FF920F931F93CF93DF93EC015B01A1
:101CC0004A016901E881F9810284F385E02D0995D3
:101CD00095012C0D3D1D21503109E881F9810488C1
:101CE000F589E02D78018401A401B501CE010995A3
:101CF000E881F9810688F789E02DCE01DF91CF9147
:101D00001F910F91FF90EF90DF90CF90BF90AF9019
:101D10009F908F9009948F929F92AF92BF92CF9293
:101D2000DF92EF92FF920F931F93CF93DF93EC011B
:101D30005B014A0169017801E881F9810284F38538
:101D4000E02D0995C80CD91C860101501109E881C4
:101D5000F9810488F589E02D9501A401B501CE0132
:101D60000995E881F9810688F789E02DCE01DF9198
:101D7000CF911F910F91FF90EF90DF90CF90BF9088
:101D8000AF909F908F900994EF92FF920F931F93C3
:101D9000DC01ED91FC9100A0F1A1E02D09951F91CE
:101DA0000F91FF90EF9008950F931F93DC01ED9139
:101DB000FC91068CF78DE02D09951F910F910895E8
:101DC0000F931F93DC01ED91FC91048CF58DE02DB8
:101DD00009951F910F910895DC01ED91FC9100840C
:101DE000F185E02D09943F924F925F926F927F921E
:101DF0008F929F92AF92BF92CF92DF92EF92FF921B
:101E00000F931F93CF93DF935C017B014A0169011C
:101E1000390187E0680E711C93E0759467949A9578
:101E2000E1F72B01400E511E10E000E0312CD0E014
:101E3000C0E0CE0187709927330C892B59F4FE013D
:101E400083E0F595E7958A95E1F7E00FF11FE80D3E
:101E5000F91D349037FE0AC021E030E0A701B5013A
:101E60006C0F7D1F8EE493E00E94EC0E2196CC1641
:101E7000DD06F9F68FEFE81AF80A060D171DE414CF
:101E8000F504A9F6DF91CF911F910F91FF90EF908C
:101E9000DF90CF90BF90AF909F908F907F906F908A
:101EA0005F904F903F9008952F923F924F925F9294
:101EB0006F927F928F929F92AF92BF92CF92DF925A
:101EC000EF92FF920F931F93CF93DF9300D000D038
:101ED00000D0CDB7DEB73C016A013E832D83FC8282
:101EE000EB825801A41AB50AB7FE03C0B194A194BD
:101EF000B1088D809E80861A970A97FE03C0919440
:101F0000819491088A149B045CF0902F812F0D819D
:101F10001E819D838E839C2D8D2D6B01692F782FC3
:101F20000C151D055CF09D818E817E836D83692F6C
:101F3000782F902F812F8601C92ED82E1601201AB6
:101F4000310A2B012D813E81421A530A57FE03C0EC
:101F5000519441945108710137FE03C03FEFE31AD9
:101F6000F30AF594E7948D819E81861797075CF5B7
:101F7000A1E0B0E0BA83A983C016D1064CF1D30129
:101F8000ED91FC910484F585E02D2B813C81A80125
:101F90006D817E818A149B041CF04D815E81B801A5
:101FA000C3010995E418F508F7FE0AC02D813E81AA
:101FB00089819A81280F391F3E832D83E20CF31CFF
:101FC0000F5F1F4FD9CF2FEF3FEF3A832983D4CF35
:101FD00026960FB6F894DEBF0FBECDBFDF91CF912E
:101FE0001F910F91FF90EF90DF90CF90BF90AF9037
:101FF0009F908F907F906F905F904F903F902F9029
:102000000895089520913602260F3327331F213279
:102010003105ECF420915A02FC0190E080E024307C
:1020200069F082E00895A09136022191AC014A5EE8
:102030005D4FA40FB52FB11D2C930196861798F311
:1020400080913602680F6093360280E0089581E047
:10205000089510925A0281E080935C0210925B0214
:1020600061E082E10E94DC0661E083E10E94DC061F
:10207000E9EBF0E080818E7F808380818D7F80839B
:1020800088E48093B80085E48093BC000895CF93E2
:10209000DF9391E0909315028823B9F0C091B800C6
:1020A000D091BA008091BC008A7B8093BC0060E034
:1020B00082E10E94DC0660E083E10E94DC060E946F
:1020C0002910D093BA00C093B800DF91CF91089542
:1020D000E0918F0280918E02E81730F4F0E0E05139
:1020E000FE4F808190E008958FEF9FEF08959091CB
:1020F0008F0280918E022FEF3FEF981748F4E92F5F
:10210000F0E0E051FE4F208130E09F5F90938F021E
:10211000C901089580918E0290918F02891B990BBD
:102120000895CF92DF92EF92FF920F931F93CF9378
:10213000DF937C01CB018A012091A402222389F044
:10214000EB016B01C40ED51ECC15DD0569F069915C
:10215000D701ED91FC910190F081E02DC701099527
:10216000F3CF642F0E940210C801DF91CF911F911D
:102170000F91FF90EF90DF90CF900895CF93DF9372
:102180001F92CDB7DEB769832091A4022223F9F014
:102190002091A102203258F021E030E0FC0133838D
:1021A000228390E080E00F90DF91CF91089580919D
:1021B000A202E82FF0E0E053FE4F998190838F5FF9
:1021C0008093A2028093A10281E090E0ECCF61E0D5
:1021D000CE0101960E940210F7CFCF92DF92EF92CC
:1021E000FF920F931F93CF93DF93D091A10281E0D1
:1021F000D13208F09CC0C091A3020E9454076B0129
:102200007C0180915A0281116CC082E080935A0255
:1022100081E080935C028FEF8093590210927E02DE
:10222000D0937D02A0EDB1E0EDE5F2E080E0D813BF
:102230008DC010927F0280917F02CC0FC82BC0937B
:102240007F0280915B02813009F084C010925B02B2
:102250000E9454076B017C0180917F028093BB0038
:102260008091110290911202A0911302B091140278
:10227000892B8A2B8B2BA1F00E945407009111020D
:102280001091120220911302309114026C197D09F1
:102290008E099F09061717072807390708F442C057
:1022A0008091BC0083FDD8CF85EC8093BC000E9458
:1022B00054076B017C0180915A02823009F44CC0B2
:1022C000809159028F3F09F469C080915902803290
:1022D00009F466C080915902803309F463C084E038
:1022E00026C08091110290911202A0911302B09128
:1022F0001402892B8A2B8B2B09F483CF0E9454075D
:1023000000911102109112022091130230911402D7
:102310006C197D098E099F090617170728073907C9
:1023200008F06FCF809110020E94471085E0109254
:10233000A2021092A1021092A402DF91CF911F91EC
:102340000F91FF90EF90DF90CF9008959D91919322
:102350008F5F6DCF85EEA9CF80911102909112020F
:10236000A0911302B0911402892B8A2B8B2B09F4B4
:10237000A2CF0E94540700911102109112022091E5
:102380001302309114026C197D098E099F090617FA
:1023900017072807390708F08ECFC4CF80E0C7CFD2
:1023A00082E0C5CF83E0C3CFEF92FF920F931F93DC
:1023B000CF93DF937C01C62F80916B0390916C03C8
:1023C000009709F459C020916F0331E03093A402C3
:1023D0002093A3021092A2021092A102DC01ED91BF
:1023E000FC910190F081E02D60E009958701EE24D9
:1023F000E394F12CD1E0C15080916B0390916C0378
:10240000CF3F91F1B0E2EB16F104D8F00E94ED104D
:1024100080916B0390916C0320916F03D093A40281
:102420002093A3021092A2021092A102DC01ED916E
:10243000FC910190F081E02D60E00995EE24E39499
:10244000F12C80916B0390916C03F8016491DC0195
:10245000ED91FC910190F081E02D0995BFEFEB1A11
:10246000FB0A0F5F1F4FC7CFDF91CF911F910F91D5
:10247000FF90EF900C94ED10E0917B03F0917C03C2
:102480009081809181038095892380838701C15049
:1024900008F438C0F80184912091690330916A03EF
:1024A000232B29F00E94020A0F5F1F4FF0CF28E074
:1024B00030E040E8E0917703F091780390917F035A
:1024C000582F5423D9F05081952B9083E0917903B4
:1024D000F0917A03908150918003952B9083E09145
:1024E0007903F0917A035081909180039095952320
:1024F0009083469521503109E9F6D6CF50819095C9
:102500009523E3CFDF91CF911F910F91FF90EF9033
:1025100008951F93CF93DF93EC018D8D9E8D0097CF
:1025200021F1162F29A131E03093A4022093A302B8
:102530001092A2021092A102DC01ED91FC91019097
:10254000F081E02D60E009958D8D9E8DDC01ED918F
:10255000FC910190F081E02D612F09958D8D9E8D6C
:10256000DF91CF911F910C94ED10ADA5BEA59C916C
:102570008BA9809589238C938B8D9C8D892B31F031
:10258000862FDF91CF911F910C94020A28E030E052
:1025900080E8A9A5BAA599A9462F4823C1F04C9176
:1025A000942B9C93ABA5BCA59C914AA9942B9C937E
:1025B000ABA5BCA54C919AA9909594239C93869524
:1025C0002150310931F7DF91CF911F9108954C913E
:1025D00090959423E6CFDF92EF92FF920F931F9393
:1025E000CF93DF9380916B0390916C03892B09F457
:1025F00098C02091830330918403409185035091CA
:10260000860360E074E284EF90E00E94F2212051A2
:1026100031094109510956954795379527952093DA
:10262000B80065E08DEF9AE00E94D41160915203EA
:1026300061508EE493E00E948912209154033091FE
:102640005503C901079697FD079633E09595879541
:102650003A95E1F72091520330915303829F800114
:10266000839F100D929F100D1124C0916D03D09186
:102670006E0380916B0390916C030C0F1D1F0097EC
:1026800009F48FC020916F0331E03093A4022093AE
:10269000A3021092A2021092A102DC01ED91FC9122
:1026A0000190F081E02D60E40995EE24E394F12C93
:1026B000DD24D39480916B0390916C030C171D075C
:1026C00009F446C0B0E2EB16F104D8F00E94ED1018
:1026D00080916B0390916C0320916F03D092A402C0
:1026E0002093A3021092A2021092A102DC01ED91AC
:1026F000FC910190F081E02D60E40995EE24E394D3
:10270000F12C80916B0390916C036991DC01ED9148
:10271000FC910190F081E02D0995BFEFEB1AFB0AC7
:10272000C9CF8091690390916A03892B31F0809120
:102730008C0390918D030E94090AE0917D03F09132
:102740007E0390818091820380958923808369CF65
:102750000E94ED1080916B0390916C03892B09F41A
:1027600061C0209187033091880340918903509183
:102770008A0360E074E284EF90E00E94F22120512D
:102780003109410951095695479537952795209369
:10279000B800DF91CF911F910F91FF90EF90DF90E4
:1027A0000895E0917B03F0917C03808190918103F7
:1027B000892B80830C171D0769F289912091690389
:1027C00030916A03232B19F00E94020AF3CF28E00C
:1027D00030E040E8E0917703F091780390917F0337
:1027E000582F5423D9F05081952B9083E091790391
:1027F000F0917A03908150918003952B9083E09122
:102800007903F0917A0350819091800390959523FC
:102810009083469521503109E9F6CCCF50819095AF
:102820009523E3CFE0917D03F0917E038081909129
:102830008203892B8083ADCF1F93CF93DF93EC016D
:10284000162F8D8D9E8D892BB1F12DA93EA94FA9F3
:1028500058AD60E074E284EF90E00E94F2212051D4
:102860003109410951095695479537952795209388
:10287000B80066EA111167EACE010E9489128D8DB7
:102880009E8D892B41F129AD3AAD4BAD5CAD60E039
:1028900074E284EF90E00E94F22120513109410955
:1028A000510956954795379527952093B800DF91A4
:1028B000CF911F9108958B8D9C8D892B21F08EAD2A
:1028C0009FAD0E94090AEFA5F8A990818CA9809577
:1028D00089238083CECFEFA5F8A980819CA9892B7D
:1028E0008083E5CF90E080E00895209154033091FB
:1028F0005503C901079697FD079623E0959587959F
:102900002A95E1F72091520330915303829FA00151
:10291000839F500D929F500D112470E060E08091D4
:102920006D0390916E030C9444230E943F23FB019E
:1029300001900020E9F73197AF01461B570BDC01EE
:10294000ED91FC910280F381E02D09948F929F928A
:10295000AF92BF92EF92FF920F931F93CF93DF93AB
:10296000CDB7DEB7A1970FB6F894DEBF0FBECDBFCF
:102970007C01FA01CB0119A2223008F42AE08E0171
:102980000F5D1F4F822E912CB12CA12CBF01A501F0
:1029900094010E94F221F901CA016A300CF5605DD0
:1029A000D8016E938D01232B242B252B79F790E0F2
:1029B00080E0109721F0BD01C7010E949714A196F5
:1029C0000FB6F894DEBF0FBECDBFDF91CF911F9140
:1029D0000F91FF90EF90BF90AF909F908F900895D0
:1029E000695CDECF2F923F924F925F926F927F92FF
:1029F0008F929F92AF92BF92CF92DF92EF92FF920F
:102A00001F93CF93DF93EC016A017B01722EAB0120
:102A10009601CB01B6010E94B82067E571E08111F3
:102A200026C046015701E894B7F82FEF3FEF4FE774
:102A30005FE7C501B4010E94B82081110CC02FEFDF
:102A40003FEF4FE75FE7C501B4010E949E1E6BE5B3
:102A500071E0181664F02FEF3FEF4FE75FE4C70116
:102A6000B6010E94F61F1816B4F46FE571E0CE01AE
:102A7000DF91CF911F91FF90EF90DF90CF90BF90AB
:102A8000AF909F908F907F906F905F904F903F900E
:102A90002F900C9497142FEF3FEF4FE75FECC70197
:102AA000B6010E949E1E87FDE0CF20E030E0A90124
:102AB000C701B6010E949E1E312C212C87FF0DC03C
:102AC000E881F9810190F081E02D6DE2CE01099558
:102AD0001C01F7FAF094F7F8F09410E060E070E071
:102AE00080E09FE3711641F020E030E040E251E4E5
:102AF0000E94A31E1F5FF6CFA70196010E94321EFF
:102B00002B013C010E94151F4B015C012AE0BC0116
:102B1000A401CE010E94A6147C01E20CF31C112337
:102B2000E1F1C501B4010E94441F9B01AC01C30146
:102B3000B2010E94311E4B015C01E881F9810190D4
:102B4000F081E02D6EE2CE010995E80EF91E1150DC
:102B500020F120E030E040E251E4C501B4010E94E0
:102B6000FB1F2B013C010E94151F4B01B12CA12C16
:102B70002AE0B501A401CE010E94A614E80EF91EB8
:102B8000C501B4010E94441F9B01AC01C301B20105
:102B90000E94311E4B015C01DACFC701DF91CF915A
:102BA0001F91FF90EF90DF90CF90BF90AF909F90DC
:102BB0008F907F906F905F904F903F902F900895EF
:102BC0000F931F93CF93DF93EC010E9497148C0116
:102BD00063E671E0CE010E949714800F911FDF9190
:102BE000CF911F910F91089585ED8093BC00809146
:102BF000110290911202A0911302B0911402079653
:102C0000A11DB11D23E0B695A795979587952A95A7
:102C1000D1F72091BC0024FD03C010925A02089500
:102C200040911102509112026091130270911402AE
:102C3000452B462B472B69F30097A105B10541F0C1
:102C400025E32A95F1F700000197A109B109E1CF29
:102C5000809110020C9447101F920F920FB60F92A2
:102C600011242F933F934F935F936F937F938F9391
:102C70009F93AF93BF93EF93FF93809195029091B1
:102C80009602A0919702B0919802892B8A2B8B2BE8
:102C9000D1F190919002E0919102F09192028081A5
:102CA000892780838091950290919602A091970246
:102CB000B0919802181619061A061B069CF480910A
:102CC000950290919602A0919702B0919802019777
:102CD000A109B1098093950290939602A09397025F
:102CE000B0939802FF91EF91BF91AF919F918F9117
:102CF0007F916F915F914F913F912F910F900FBEF8
:102D00000F901F901895809100010E942807EACF2C
:102D10001F920F920FB60F9211242F933F934F9350
:102D20005F936F937F938F939F93AF93BF93EF9333
:102D3000FF9385EA92E00E944D06FF91EF91BF91CB
:102D4000AF919F918F917F916F915F914F913F9143
:102D50002F910F900FBE0F901F9018951F920F92FA
:102D60000FB60F9211242F938F939F93EF93FF939E
:102D7000E091B502F091B6028081E091BB02F09142
:102D8000BC0282FD1BC090818091BE028F5F8F7359
:102D90002091BF02821741F0E091BE02F0E0EB55B6
:102DA000FD4F958F8093BE02FF91EF919F918F9180
:102DB0002F910F900FBE0F901F9018958081F4CF28
:102DC0001F920F920FB60F9211242F933F938F9360
:102DD0009F93AF93BF938091810290918202A091C3
:102DE0008302B09184023091800223E0230F2D37BB
:102DF00058F50196A11DB11D209380028093810298
:102E000090938202A0938302B09384028091850202
:102E100090918602A0918702B09188020196A11D2F
:102E2000B11D8093850290938602A0938702B09390
:102E30008802BF91AF919F918F913F912F910F90F9
:102E40000FBE0F901F90189526E8230F0296A11D24
:102E5000B11DD2CF1F920F920FB60F9211242F9354
:102E60003F934F935F936F937F938F939F93AF9312
:102E7000BF93EF93FF938091B900887F803609F468
:102E80004AC0F0F5883209F4A7C018F5803109F47A
:102E90009BC0B8F4882309F4F9C0883009F494C0C1
:102EA000FF91EF91BF91AF919F918F917F916F9122
:102EB0005F914F913F912F910F900FBE0F901F90F8
:102EC0001895883109F488C0803251F780935902EF
:102ED00014C0803409F49DC040F48033B9F38833C2
:102EE000F9F68093590285ECB0C0803509F485C0AD
:102EF000883509F496C0883499F60E94F415D0CF2D
:102F0000883909F48CC038F5883729F050F48836B0
:102F100011F0803729F683E080935A02109258020C
:102F200057C0883809F47BC0803919F0803809F01F
:102F3000B7CF80915802803208F071C0E0915802FA
:102F400081E08E0F809358028091BB00F0E0E85C36
:102F5000FD4F80833DC0803B39F0E0F4803A09F4B6
:102F600079C0883A09F09CCF84E080935A0210928D
:102F7000370210923602E0918C02F0918D02099591
:102F80008091360281110FC081E080933602109249
:102F9000160209C0803C09F4A6CF883C09F4A3CFEF
:102FA000883B09F07DCFE091370281E08E0F80935E
:102FB0003702F0E0EA5EFD4F80818093BB00909184
:102FC00037028091360229C080917F028093BB0036
:102FD00085EC8093BC0064CF90917E0280917D024D
:102FE000981758F5E0917E0281E08E0F80937E0263
:102FF000F0E0E35AFD4F8081E9CFE0917E0281E06D
:103000008E0F80937E028091BB00F0E0E35AFD4F6B
:10301000808390917E0280917D029817C8F285E8A6
:10302000D8CFE0917E0281E08E0F80937E02809166
:10303000BB00F0E0E35AFD4F808380915C02811178
:103040005CCF81E080935B0284EA8093BC001092A5
:103050005A0226CF85EC8093BC0010925A028091D0
:103060005802803230F4E0915802F0E0E85CFD4F05
:1030700010826091580270E0E0918A02F0918B0218
:1030800088E392E00995109258020ACF10925902F3
:1030900034CFE5EAF2E01382128248EE53E060E0BA
:1030A00070E044835583668377838BE091E091835E
:1030B000808385EC90E09587848784EC90E0978707
:1030C000868780EC90E0918B808B81EC90E0938BF5
:1030D000828B82EC90E0958B848B86EC90E0978BD2
:1030E000868B118E128E138E148EA2E4B3E013968B
:1030F0001C921E92129714964D935D936D937C9340
:1031000017978DE191E011969C938E93EEE4F3E096
:103110001382128220E830E03583248380E490E03B
:10312000978386833187208793878287168A1586BF
:1031300014861786168681E0858B848B2FEF3FEFF0
:10314000338B228B318B208B878B108E128E118EBE
:103150008FE291E091838083148E138EB68FA58FBA
:1031600010A2178E8FEF84A385A386A387A384E084
:1031700080A780E89AE1A6E0B0E085AB96ABA7AB6C
:10318000B0AF80EA96E8A1E0B0E081AF92AFA3AF24
:10319000B4AF80E586AF17AE0895789484B58260A9
:1031A00084BD84B5816084BD85B5826085BD85B5EB
:1031B000816085BD80916E00816080936E00109269
:1031C00081008091810082608093810080918100E4
:1031D0008160809381008091800081608093800075
:1031E0008091B10084608093B1008091B0008160D3
:1031F0008093B00080917A00846080937A008091FF
:103200007A00826080937A0080917A008160809356
:103210007A0080917A00806880937A001092C100D1
:1032200089E00E94AD0588E00E94AD0587E00E941C
:10323000AD05E091B502F091B60282E08083E091A5
:10324000B102F091B2021082E091B302F091B402A7
:103250008FEC80831092BD02E091B902F091BA0226
:1032600086E08083E091B702F091B80280818061AE
:103270008083E091B702F091B802808188608083FA
:10328000E091B702F091B802808180688083E0917C
:10329000B702F091B80280818F7D808380916D03A9
:1032A00090916E03892B11F10E94751420915403A3
:1032B000309155038091520390915303213231058F
:1032C0000CF0A5C1B9016052710977FF02C06F5FB0
:1032D0007F4F759567958357910997FD019600E299
:1032E00010E023E730E040E256E0A4C1209154030F
:1032F00030915503C901079697FD0796B3E0959560
:103300008795BA95E1F72091520330915303AC01B0
:10331000429FC001439F900D529F900D11240E9427
:103320001A2290936E0380936D03892B09F0BCCF12
:103330000E9475146AE070E080E090E00E947907D6
:103340000E94751411E01093620310936303C1E0AF
:10335000D0E0D0936103C0936003D0935F03C09328
:103360005E0310925B0310925A0310925D03109259
:103370005C0366E671E08EE493E00E94E0150E9433
:10338000EB121093620310936303D0936103C09315
:103390006003D0935F03C0935E0310925B031092AF
:1033A0005A0384E190E090935D0380935C0363E7AC
:1033B00071E08EE493E00E94E0150E94EB121093FE
:1033C000620310936303D0936103C0936003D093AF
:1033D0005F03C0935E0310925B0310925A0383E273
:1033E00090E090935D0380935C0361E871E08EE46C
:1033F00093E00E94E0150E94EB1260ED77E080E020
:1034000090E00E9479074CED242E4AE0342E5DE2D4
:10341000852E912C60E9462E55245394612C712CF5
:1034200030EFA32E3AE0B32E01E050E450937C003D
:1034300080917A00806480937A0080917A0086FD82
:10344000FCCF8091780060917900762F682F072E4D
:10345000000C880B990B0E94461F9B01AC0160E099
:1034600070EC8FE794E40E94A31E20E030E040EA75
:1034700050E40E94FB1F20E030E040E85FE30E9440
:10348000311E20E030E040E251E40E94FB1F2FE8B3
:1034900032E449E952E40E94A31E2EED37E341E3F2
:1034A00050EC0E94682022E434E349EE52E40E948A
:1034B000FB1F6B017C016DE871E085EA92E00E94E0
:1034C000971422E0B701A60185EA92E00E94F21467
:1034D0006BE971E085EA92E00E94E01563E671E035
:1034E00085EA92E00E9497140E94751410925B0383
:1034F00010925A0310925D0310925C0300936203D2
:1035000000936303D0936103C0936003D0935F0380
:10351000C0935E0361EA71E08EE493E00E94E015DF
:1035200010925B0310925A0384E190E090935D0344
:1035300080935C0312E01093620310936303D093B3
:103540006103C0936003D0935F03C0935E0322E0E6
:10355000B701A6018EE493E00E94F2140093620387
:1035600000936303D0936103C0936003D0935F0320
:10357000C0935E036CE971E08EE493E00E94E01575
:103580000E94EB1220E030E04AE754E4C701B601A4
:103590000E949E1E18160CF427C261E088E00E946B
:1035A000DC0660E089E00E94DC0687E00E942807D4
:1035B0001093620310936303D0936103C09360037D
:1035C000D0935F03C0935E0310925B0310925A0383
:1035D00090925D0380925C0363EB71E08EE493E074
:1035E0000E94E0150E94EB1260ED77E080E090E031
:1035F0000E94790780E090E0892B09F416CF0E94A1
:103600003906882309F410CF0E94000009CFB901C0
:103610006054710977FF02C06F5F7F4F75956795A2
:103620008255910997FD019600E410E022E530E013
:1036300040E058E0959587950E94F30E82E08093D4
:10364000700380916B0390916C03892B09F4DEC0A9
:103650008CE380936F0310928F0210928E0210926F
:10366000A2021092A1020E9429108DEC95E0909385
:103670008D0280938C028EEC95E090938B02809368
:103680008A028091760387FD1DC00E94AD0561E02E
:10369000809176030E94DC0661E070E080E090E0BB
:1036A0000E94790760E0809176030E94DC066AE060
:1036B00070E080E090E00E94790761E080917603FD
:1036C0000E94DC0680916B0390916C03892B09F4B6
:1036D00054C120918303309184034091850350911C
:1036E000860360E074E284EF90E00E94F2212051B2
:1036F00031094109510956954795379527952093EA
:10370000B80064E08CE196E00E94D411609154030B
:1037100061508EE493E00E94891264E088E196E0B3
:103720000E94D4118091700364E1813009F460E15A
:103730008EE493E00E94891264E084E196E00E94A6
:10374000D4118FE880938B0380915203909153039F
:103750008038910509F02AC1809154039091550356
:103760008034910509F032C180917003813009F4F1
:103770001BC18FEC80938B03C2E16AED8EE493E072
:103780000E9489126C2F8EE493E00E94891261E8F6
:103790008EE493E00E94891260918B038EE493E0A3
:1037A0000E94891269ED8EE493E00E948912809153
:1037B000700361EF813009F462E28EE493E00E94CD
:1037C000891266E08EE096E00E94D41180916B032E
:1037D00090916C03892B09F4FDC0209187033091EF
:1037E00088034091890350918A0360E074E284EF7A
:1037F00090E00E94F221205131094109510956956A
:103800004795379527952093B80092CD8091740302
:103810000E94AD05809175030E94AD0580917403EF
:10382000082E000C990BFC01EB52F54FE491F0E0EF
:10383000EE0FFF1FEF53F54F2591349130937C032A
:1038400020937B03FC01E751F54FE491E093810362
:1038500080917503082E000C990BFC01EB52F54F7B
:10386000E491F0E0EE0FFF1FEF53F54FA591B491F7
:10387000B0937E03A0937D03FC01E751F54FE491E3
:10388000E09382038C91E82BEC93809169039091F3
:103890006A03892B89F1CFB7F8948091890281114D
:1038A00024C0EFEDFAE08491E3EFFAE09491E82F81
:1038B000F0E0EE0FFF1FE553F54FA591B491EC91A9
:1038C000E92321F461E08AE00E94DC068AE00E949C
:1038D000AD058CB580618CBD8CB580648CBD8DE0F0
:1038E0000E94AD058BE00E94AD05809189028F5F3B
:1038F00080938902CFBFC5CE809172030E94AD052F
:10390000809173030E94AD0580917203082E000C14
:10391000990BFC01EB52F54FE491F0E0EE0FFF1F25
:10392000EF53F54F2591349130937803209377032B
:10393000FC01E751F54FE491E0937F03809173031D
:10394000082E000C990BFC01EB52F54FE491F0E0CE
:10395000EE0FFF1FEF53F54FA591B491B0937A038B
:10396000A0937903FC01E751F54FE491E0938003C4
:103970008C91E095E823EC9384CE8091690390913B
:103980006A03892B31F080918C0390918D030E9402
:10399000090AE0917D03F0917E039081809182037A
:1039A000809589238083ADCE8FE9E4CE8036910562
:1039B00069F48091540390915503409739F48091B4
:1039C0007003813029F08FEA80938B03C2E0D5CE5B
:1039D00080E1FACFE0917D03F0917E0380819091A8
:1039E0008203892B8083A4CC20E030E04AE754E4B2
:1039F000C701B6010E94F61F87FD2CC020E030E011
:103A00004AEF54E4C701B6010E949E1E181614F135
:103A100060E088E00E94DC0661E089E00E94DC064C
:103A200087E00E9428071093620310936303D093EA
:103A30006103C0936003D0935F03C0935E03109251
:103A40005B0310925A0390925D0380925C036DEBCE
:103A500071E0C4CD20E030E04AEF54E4C701B60184
:103A60000E94F61F87FDC6CD60E088E00E94DC065C
:103A700061E089E00E94DC0680910001873029F531
:103A8000E0ECFAE0149117FDBDC087E00E94AD059F
:103A9000112309F488C0123009F099C08091B10057
:103AA000887F83608093B10089EF8093B300409258
:103AB00095025092960260929702709298028091BD
:103AC00070008260809370009DC08F3F09F09AC0A3
:103AD00087E080930001E0ECFAE014911F3F09F4C5
:103AE00091C0113011F148F0123009F43BC017FDBC
:103AF00089C087E00E94AD05CECF14BC15BC84B54B
:103B0000826084BD85B5816085BDF1018491E82F17
:103B1000F0E0EE0FFF1FEF53F54F85919491F50103
:103B200084918093940210E0B0CF109280001092A4
:103B30008100809181008860809381008091810064
:103B4000816080938100F1018491E82FF0E0EE0F15
:103B5000FF1FEF53F54F85919491F5018491809368
:103B6000930293CF1092B0001092B1008091B000F8
:103B700082608093B0008091B10081608093B10039
:103B8000F1018491E82FF0E0EE0FFF1FEF53F54FA6
:103B9000859194919093920280939102F501849182
:103BA0008093900272CF85B5887F836085BD8CE756
:103BB00087BD40929D0250929E0260929F02709239
:103BC000A00280916E00826080936E001BC0113055
:103BD00089F580918100887F8160809381004FE327
:103BE0005FE150938900409388004092990250927F
:103BF0009A0260929B0270929C0280916F00826098
:103C000080936F0082E08093620380936303D0937C
:103C10006103C0936003D0935F03C0935E0310926F
:103C20005B0310925A0390925D0380925C0367ECF1
:103C300071E0D4CC123021F01111E4CF8FE3B8CF72
:103C40008FE333CF8FE291E090934F0380934E0345
:103C500080916D0390916E03009711F00C94B62241
:103C600008955058BB27AA270E94491E0C94BC1FD8
:103C70000E94AE1F38F00E94B51F20F039F49F3F1C
:103C800019F426F40C94AB1F0EF4E095E7FB0C94AA
:103C9000A51FE92F0E94CD1F58F3BA1762077307BB
:103CA0008407950720F079F4A6F50C94EF1F0EF425
:103CB000E0950B2EBA2FA02D0B01B90190010C013C
:103CC000CA01A0011124FF27591B99F0593F50F454
:103CD000503E68F11A16F040A22F232F342F4427AC
:103CE000585FF3CF469537952795A795F0405395A4
:103CF000C9F77EF41F16BA0B620B730B840BBAF074
:103D00009150A1F0FF0FBB1F661F771F881FC2F7DE
:103D10000EC0BA0F621F731F841F48F487957795F2
:103D20006795B795F7959E3F08F0B0CF9395880FAC
:103D300008F09927EE0F9795879508950E94811FA7
:103D400008F481E008950E94B71E0C94BC1F0E94E5
:103D5000B51F58F00E94AE1F40F029F45F3F29F0D4
:103D60000C94A51F51110C94F01F0C94AB1F0E94D2
:103D7000CD1F68F39923B1F3552391F3951B550B90
:103D8000BB27AA2762177307840738F09F5F5F4F2E
:103D9000220F331F441FAA1FA9F335D00E2E3AF06D
:103DA000E0E832D091505040E695001CCAF72BD085
:103DB000FE2F29D0660F771F881FBB1F26173707D6
:103DC0004807AB07B0E809F0BB0B802DBF01FF2708
:103DD00093585F4F3AF09E3F510578F00C94A51F21
:103DE0000C94F01F5F3FE4F3983ED4F386957795EB
:103DF0006795B795F7959F5FC9F7880F911D9695C1
:103E0000879597F90895E1E0660F771F881FBB1F1C
:103E1000621773078407BA0720F0621B730B840BC9
:103E2000BA0BEE1F88F7E09508950E94D51F88F021
:103E30009F5798F0B92F9927B751B0F0E1F0660F6E
:103E4000771F881F991F1AF0BA95C9F714C0B130AF
:103E500091F00E94EF1FB1E008950C94EF1F672FBF
:103E6000782F8827B85F39F0B93FCCF386957795DE
:103E70006795B395D9F73EF49095809570956195C7
:103E80007F4F8F4F9F4F0895E89409C097FB3EF4F2
:103E900090958095709561957F4F8F4F9F4F992397
:103EA000A9F0F92F96E9BB279395F6958795779515
:103EB0006795B795F111F8CFFAF4BB0F11F460FFD5
:103EC0001BC06F5F7F4F8F4F9F4F16C0882311F02D
:103ED00096E911C0772321F09EE8872F762F05C041
:103EE000662371F096E8862F70E060E02AF09A95DC
:103EF000660F771F881FDAF7880F9695879597F9D1
:103F00000895990F0008550FAA0BE0E8FEEF16166A
:103F10001706E807F907C0F012161306E407F507BD
:103F200098F0621B730B840B950B39F40A2661F031
:103F3000232B242B252B21F408950A2609F4A140D4
:103F4000A6958FEF811D811D089597F99F6780E8E1
:103F500070E060E008959FEF80EC089500240A94DB
:103F60001616170618060906089500240A94121654
:103F70001306140605060895092E0394000C11F487
:103F8000882352F0BB0F40F4BF2B11F460FF04C034
:103F90006F5F7F4F8F4F9F4F089557FD9058440F8D
:103FA000551F59F05F3F71F04795880F97FB991F98
:103FB00061F09F3F79F08795089512161306140655
:103FC000551FF2CF4695F1DF08C0161617061806E2
:103FD000991FF1CF86957105610508940895E894BD
:103FE000BB2766277727CB0197F908950E94811F89
:103FF00008F48FEF08950E940E200C94BC1F0E94BD
:10400000AE1F38F00E94B51F20F0952311F00C94DC
:10401000A51F0C94AB1F11240C94F01F0E94CD1F00
:1040200070F3959FC1F3950F50E0551F629FF0010B
:10403000729FBB27F00DB11D639FAA27F00DB11D24
:10404000AA1F649F6627B00DA11D661F829F2227AD
:10405000B00DA11D621F739FB00DA11D621F839F34
:10406000A00D611D221F749F3327A00D611D231F0A
:10407000849F600D211D822F762F6A2F11249F5758
:1040800050409AF0F1F088234AF0EE0FFF1FBB1F5B
:10409000661F771F881F91505040A9F79E3F51051A
:1040A00080F00C94A51F0C94F01F5F3FE4F3983E42
:1040B000D4F3869577956795B795F795E7959F5FC4
:1040C000C1F7FE2B880F911D9695879597F9089556
:1040D000FA01EE0FFF1F309621053105A1F16115A0
:1040E000710561F48038BFE39B0749F1689490380B
:1040F000810561F08038BFEF9B0741F099234AF5B5
:10410000FF3FE1053105210519F1E8940894E79591
:10411000D901AA2329F4AB2FBE2FF85FD0F310C02A
:10412000FF5F70F4A695E0F7F73950F019F0FF3A09
:1041300038F49F779F930DD00F9007FC9058089507
:1041400046F00C94AB1F60E070E080E89FE30895B8
:104150004FE79F775F934F933F932F930E94682180
:104160002F913F914F915F910E94FB1F0C94C520AE
:104170000E94811F880B990B089529F416F00C9466
:10418000A51F0C94EF1F0C94AB1F0E94D51FA8F322
:104190009638A0F707F80F92E8942BE33AEA48EB39
:1041A0005FE70E9411200F920F920F924DB75EB7FA
:1041B0000F920E94B021E8E6F0E00E94F7204F91B4
:1041C0005F91EF91FF91E595EE1FFF1F49F0FE57BC
:1041D000E0684427EE0F441FFA95E1F74195550B2F
:1041E0000E942A210F9007FE0C941E210895DF9350
:1041F000CF931F930F93FF92EF92DF927B018C017D
:10420000689406C0DA2EEF010E940E20FE01E894A9
:10421000A5912591359145915591A6F3EF010E9405
:10422000491EFE019701A801DA9469F7DF90EF902B
:10423000FF900F911F91CF91DF9108959B01AC01E9
:1042400060E070E080E89FE30C94A31E0C94A51F2F
:104250000C94E4210E94D51FD8F39923C9F3940F3D
:10426000511DA3F39150504094F059F0882332F03F
:10427000660F771F881F91505040C1F79E3F510530
:104280002CF7880F911D9695879597F908955F3FB4
:10429000ACF0983E9CF0BB27869577956795B795CF
:1042A00008F4B1609395C1F7BB0F58F711F460FFA4
:1042B000E8CF6F5F7F4F8F4F9F4FE3CF0C94F01F7E
:1042C00016F00C94E4210C94AB1F68940C94A51F79
:1042D0000E94D51FA8F39923C1F3AEF3DF93CF93C8
:1042E0001F930F93FF92C92FDD2788232AF0219770
:1042F000660F771F881FDAF720E030E040E85FEBB9
:104300009FE3883920F0803E38F021968F770E9415
:10431000321EE0E9F0E004C00E94321EEDEBF0E056
:104320000E94F7208B01BE01EC01FB2E6F57710933
:104330007595771F880B990B0E94461F28E132E77D
:1043400041E35FE30E940E20AF2D9801AE01FF9084
:104350000F911F91CF91DF910E94491E0C94BC1FB9
:10436000FA01DC01AA0FBB1F9B01AC01BF5728F467
:10437000222733274427507820C0B75190F4AB2F21
:104380000024469537952795011CA395D2F300206C
:1043900071F0220F331F441FB395DAF30ED00C9443
:1043A000311E61307105A0E88A07B94630F49B01DF
:1043B000AC016627772788279078309621F02083F4
:1043C00031834283538308959F3F31F0915020F40D
:1043D000879577956795B795880F911D96958795E1
:1043E00097F90895A1E21A2EAA1BBB1BFD010DC06F
:1043F000AA1FBB1FEE1FFF1FA217B307E407F50795
:1044000020F0A21BB30BE40BF50B661F771F881F70
:10441000991F1A9469F760957095809590959B0106
:10442000AC01BD01CF010895EE0FFF1F0590F4917F
:10443000E02D09940F931F93CF93DF938230910562
:1044400010F482E090E0E0919003F091910330E06D
:1044500020E0B0E0A0E0309799F42115310509F48F
:104460004AC0281B390B24303105D8F58A819B813D
:104470006115710589F1FB0193838283FE0111C0EF
:10448000408151810281138148175907E0F0481794
:10449000590799F4109761F012960C93129713969E
:1044A0001C933296CF01DF91CF911F910F91089508
:1044B0000093900310939103F4CF2115310551F02F
:1044C0004217530738F0A901DB019A01BD01DF0152
:1044D000F801C1CFEF01F9CF90939103809390033E
:1044E000CDCFFE01E20FF31F81939193225031094A
:1044F00039832883D7CF20918E0330918F03232BCC
:1045000041F4209103013091040130938F032093F3
:104510008E0320910101309102012115310541F4F2
:104520002DB73EB74091050150910601241B350B74
:10453000E0918E03F0918F03E217F307A0F42E1B96
:104540003F0B2817390778F0AC014E5F5F4F2417F7
:10455000350748F04E0F5F1F50938F0340938E0333
:10456000819391939FCFF0E0E0E09CCFCF93DF93D6
:104570000097E9F0FC01329713821282A091900318
:10458000B0919103ED0130E020E01097A1F420817B
:104590003181820F931F20918E0330918F03281752
:1045A000390709F061C0F0938F03E0938E03DF9128
:1045B000CF910895EA01CE17DF07E8F54A815B81C4
:1045C0009E0141155105B1F7E901FB83EA83499149
:1045D0005991C40FD51FEC17FD0761F480819181BB
:1045E0000296840F951FE9019983888382819381C4
:1045F0009B838A83F0E0E0E012968D919C91139763
:104600000097B9F52D913C911197CD010296820F3B
:10461000931F20918E0330918F032817390739F6A5
:10462000309751F51092910310929003B0938F033D
:10463000A0938E03BCCFD383C28340815181840F6A
:10464000951FC817D90761F44E5F5F4F8881998124
:10465000480F591F518340838A819B8193838283B2
:104660002115310509F0B0CFF0939103E093900349
:104670009ECFFD01DC01C0CF13821282D7CF81E033
:1046800090E0F8940C944B23DC0101C06D934150F1
:104690005040E0F7089515E0C2E8D5E004C0FE01FF
:1046A0000E9414222196C338D107C9F7F894FFCF8E
:1046B000FF000092038000000000006F06CF05FCA1
:1046C00005BC062D060B061F0600000000BE10915B
:1046D000107214CC058A1077106810000000004793
:1046E0000CCF05721401105209CC05EC0EC40EE07B
:1046F0000ED40E540FCC050D0A1C14C2080B090D64
:104700000EF00D780D190D6E616E00696E66006F0A
:104710007666000D0A00454C454354524F445549B6
:104720004E300041697220506F6C6C7574696F6E09
:1047300000204D6F6E69746F72696E670041697217
:10474000205175616C6974793A2000202050504DD9
:1047500000416972205175616C69747920496E64F9
:104760006578004672657368204169720020506F59
:104770006F72204169720044616E67657221210089
:107E0000112484B714BE81FFF0D085E080938100F7
:107E100082E08093C00088E18093C10086E0809377
:107E2000C20080E18093C4008EE0C9D0259A86E02C
:107E300020E33CEF91E0309385002093840096BBD3
:107E4000B09BFECF1D9AA8958150A9F7CC24DD24C4
:107E500088248394B5E0AB2EA1E19A2EF3E0BF2EE7
:107E6000A2D0813461F49FD0082FAFD0023811F036
:107E7000013811F484E001C083E08DD089C08234E0
:107E800011F484E103C0853419F485E0A6D080C0E4
:107E9000853579F488D0E82EFF2485D0082F10E0AE
:107EA000102F00270E291F29000F111F8ED06801E7
:107EB0006FC0863521F484E090D080E0DECF843638
:107EC00009F040C070D06FD0082F6DD080E0C81688
:107ED00080E7D80618F4F601B7BEE895C0E0D1E017
:107EE00062D089930C17E1F7F0E0CF16F0E7DF06D8
:107EF00018F0F601B7BEE89568D007B600FCFDCFD4
:107F0000A601A0E0B1E02C9130E011968C91119780
:107F100090E0982F8827822B932B1296FA010C0160
:107F200087BEE89511244E5F5F4FF1E0A038BF0790
:107F300051F7F601A7BEE89507B600FCFDCF97BE46
:107F4000E89526C08437B1F42ED02DD0F82E2BD052
:107F50003CD0F601EF2C8F010F5F1F4F84911BD097
:107F6000EA94F801C1F70894C11CD11CFA94CF0C13
:107F7000D11C0EC0853739F428D08EE10CD085E9AC
:107F80000AD08FE07ACF813511F488E018D01DD067
:107F900080E101D065CF982F8091C00085FFFCCF94
:107FA0009093C60008958091C00087FFFCCF809118
:107FB000C00084FD01C0A8958091C6000895E0E648
:107FC000F0E098E1908380830895EDDF803219F02E
:107FD00088E0F5DFFFCF84E1DECF1F93182FE3DFCA
:107FE0001150E9F7F2DF1F91089580E0E8DFEE27F6
:047FF000FF270994CA
:027FFE00040479
:00000001FF
